{
  "_format": "hh-sol-artifact-1",
  "contractName": "HospitalRecords",
  "sourceName": "contracts/hospital.sol",
  "abi": [
    {
      "inputs": [],
      "stateMutability": "nonpayable",
      "type": "constructor"
    },
    {
      "anonymous": false,
      "inputs": [
        {
          "indexed": true,
          "internalType": "address",
          "name": "hospital",
          "type": "address"
        },
        {
          "indexed": false,
          "internalType": "bool",
          "name": "isRegistered",
          "type": "bool"
        }
      ],
      "name": "HospitalRegistered",
      "type": "event"
    },
    {
      "anonymous": false,
      "inputs": [
        {
          "indexed": true,
          "internalType": "address",
          "name": "patient",
          "type": "address"
        },
        {
          "indexed": false,
          "internalType": "string",
          "name": "newCID",
          "type": "string"
        }
      ],
      "name": "PatientCIDUpdated",
      "type": "event"
    },
    {
      "anonymous": false,
      "inputs": [
        {
          "indexed": true,
          "internalType": "address",
          "name": "patient",
          "type": "address"
        },
        {
          "indexed": false,
          "internalType": "bool",
          "name": "isRegistered",
          "type": "bool"
        },
        {
          "indexed": false,
          "internalType": "string",
          "name": "folderCID",
          "type": "string"
        }
      ],
      "name": "PatientRegistered",
      "type": "event"
    },
    {
      "inputs": [],
      "name": "admin",
      "outputs": [
        {
          "internalType": "address",
          "name": "",
          "type": "address"
        }
      ],
      "stateMutability": "view",
      "type": "function"
    },
    {
      "inputs": [
        {
          "internalType": "address",
          "name": "_patient",
          "type": "address"
        }
      ],
      "name": "getPatientCID",
      "outputs": [
        {
          "internalType": "string",
          "name": "",
          "type": "string"
        }
      ],
      "stateMutability": "view",
      "type": "function"
    },
    {
      "inputs": [
        {
          "internalType": "address",
          "name": "_hospital",
          "type": "address"
        }
      ],
      "name": "isRegisteredHospital",
      "outputs": [
        {
          "internalType": "bool",
          "name": "",
          "type": "bool"
        }
      ],
      "stateMutability": "view",
      "type": "function"
    },
    {
      "inputs": [],
      "name": "patientCount",
      "outputs": [
        {
          "internalType": "uint256",
          "name": "",
          "type": "uint256"
        }
      ],
      "stateMutability": "view",
      "type": "function"
    },
    {
      "inputs": [
        {
          "internalType": "address",
          "name": "_hospital",
          "type": "address"
        }
      ],
      "name": "registerHospital",
      "outputs": [],
      "stateMutability": "nonpayable",
      "type": "function"
    },
    {
      "inputs": [
        {
          "internalType": "address",
          "name": "_patient",
          "type": "address"
        }
      ],
      "name": "registerPatient",
      "outputs": [],
      "stateMutability": "nonpayable",
      "type": "function"
    },
    {
      "inputs": [
        {
          "internalType": "address",
          "name": "",
          "type": "address"
        }
      ],
      "name": "registeredHospitals",
      "outputs": [
        {
          "internalType": "bool",
          "name": "",
          "type": "bool"
        }
      ],
      "stateMutability": "view",
      "type": "function"
    },
    {
      "inputs": [
        {
          "internalType": "address",
          "name": "",
          "type": "address"
        }
      ],
      "name": "registeredPatients",
      "outputs": [
        {
          "internalType": "bool",
          "name": "",
          "type": "bool"
        }
      ],
      "stateMutability": "view",
      "type": "function"
    },
    {
      "inputs": [
        {
          "internalType": "address",
          "name": "_hospital",
          "type": "address"
        }
      ],
      "name": "revokeHospital",
      "outputs": [],
      "stateMutability": "nonpayable",
      "type": "function"
    },
    {
      "inputs": [
        {
          "internalType": "address",
          "name": "_patient",
          "type": "address"
        },
        {
          "internalType": "string",
          "name": "_newCID",
          "type": "string"
        }
      ],
      "name": "updatePatientCID",
      "outputs": [],
      "stateMutability": "nonpayable",
      "type": "function"
    }
  ],
  "bytecode": "0x6080604052348015600f57600080fd5b50336000806101000a81548173ffffffffffffffffffffffffffffffffffffffff021916908373ffffffffffffffffffffffffffffffffffffffff1602179055506001600460008060009054906101000a900473ffffffffffffffffffffffffffffffffffffffff1673ffffffffffffffffffffffffffffffffffffffff1673ffffffffffffffffffffffffffffffffffffffff16815260200190815260200160002060006101000a81548160ff0219169083151502179055506116d4806100d86000396000f3fe608060405234801561001057600080fd5b506004361061009e5760003560e01c8063a0303c4111610066578063a0303c411461017f578063c3856ebe1461019d578063c5b99858146101b9578063efd12667146101d5578063f851a440146101f15761009e565b80631388c519146100a357806326fc9787146100bf57806338cb99ff146100ef5780636bd9110e1461011f5780639cdaaad81461014f575b600080fd5b6100bd60048036038101906100b89190610c8b565b61020f565b005b6100d960048036038101906100d49190610c8b565b61046b565b6040516100e69190610cd3565b60405180910390f35b61010960048036038101906101049190610c8b565b61048b565b6040516101169190610cd3565b60405180910390f35b61013960048036038101906101349190610c8b565b6104e1565b6040516101469190610d7e565b60405180910390f35b61016960048036038101906101649190610c8b565b610720565b6040516101769190610cd3565b60405180910390f35b610187610740565b6040516101949190610db9565b60405180910390f35b6101b760048036038101906101b29190610f09565b610746565b005b6101d360048036038101906101ce9190610c8b565b6108fd565b005b6101ef60048036038101906101ea9190610c8b565b610a33565b005b6101f9610bf5565b6040516102069190610f74565b60405180910390f35b600360003373ffffffffffffffffffffffffffffffffffffffff1673ffffffffffffffffffffffffffffffffffffffff16815260200190815260200160002060009054906101000a900460ff1661029b576040517f08c379a000000000000000000000000000000000000000000000000000000000815260040161029290611001565b60405180910390fd5b600160008273ffffffffffffffffffffffffffffffffffffffff1673ffffffffffffffffffffffffffffffffffffffff16815260200190815260200160002060009054906101000a900460ff1615610328576040517f08c379a000000000000000000000000000000000000000000000000000000000815260040161031f9061106d565b60405180910390fd5b60018060008373ffffffffffffffffffffffffffffffffffffffff1673ffffffffffffffffffffffffffffffffffffffff16815260200190815260200160002060006101000a81548160ff0219169083151502179055506040518060400160405280600781526020017f70656e64696e6700000000000000000000000000000000000000000000000000815250600260008373ffffffffffffffffffffffffffffffffffffffff1673ffffffffffffffffffffffffffffffffffffffff16815260200190815260200160002090816104009190611299565b50600560008154809291906104149061139a565b91905055508073ffffffffffffffffffffffffffffffffffffffff167fef63fe82891cb41cb75263a07b7c95dd17c208c197557dfe366c3762db1b0a506001604051610460919061142e565b60405180910390a250565b60036020528060005260406000206000915054906101000a900460ff1681565b6000600360008373ffffffffffffffffffffffffffffffffffffffff1673ffffffffffffffffffffffffffffffffffffffff16815260200190815260200160002060009054906101000a900460ff169050919050565b606060008054906101000a900473ffffffffffffffffffffffffffffffffffffffff1673ffffffffffffffffffffffffffffffffffffffff163373ffffffffffffffffffffffffffffffffffffffff1614806105865750600360003373ffffffffffffffffffffffffffffffffffffffff1673ffffffffffffffffffffffffffffffffffffffff16815260200190815260200160002060009054906101000a900460ff165b6105c5576040517f08c379a00000000000000000000000000000000000000000000000000000000081526004016105bc906114ce565b60405180910390fd5b600160008373ffffffffffffffffffffffffffffffffffffffff1673ffffffffffffffffffffffffffffffffffffffff16815260200190815260200160002060009054906101000a900460ff16610651576040517f08c379a00000000000000000000000000000000000000000000000000000000081526004016106489061153a565b60405180910390fd5b600260008373ffffffffffffffffffffffffffffffffffffffff1673ffffffffffffffffffffffffffffffffffffffff168152602001908152602001600020805461069b906110bc565b80601f01602080910402602001604051908101604052809291908181526020018280546106c7906110bc565b80156107145780601f106106e957610100808354040283529160200191610714565b820191906000526020600020905b8154815290600101906020018083116106f757829003601f168201915b50505050509050919050565b60016020528060005260406000206000915054906101000a900460ff1681565b60055481565b600460003373ffffffffffffffffffffffffffffffffffffffff1673ffffffffffffffffffffffffffffffffffffffff16815260200190815260200160002060009054906101000a900460ff166107d2576040517f08c379a00000000000000000000000000000000000000000000000000000000081526004016107c9906115a6565b60405180910390fd5b600160008373ffffffffffffffffffffffffffffffffffffffff1673ffffffffffffffffffffffffffffffffffffffff16815260200190815260200160002060009054906101000a900460ff1661085e576040517f08c379a000000000000000000000000000000000000000000000000000000000815260040161085590611612565b60405180910390fd5b80600260008473ffffffffffffffffffffffffffffffffffffffff1673ffffffffffffffffffffffffffffffffffffffff16815260200190815260200160002090816108aa9190611299565b508173ffffffffffffffffffffffffffffffffffffffff167f6f77d04db43bd44d76ba912249773363c5c25792097ed5bd3e044f117ae496e7826040516108f19190610d7e565b60405180910390a25050565b600460003373ffffffffffffffffffffffffffffffffffffffff1673ffffffffffffffffffffffffffffffffffffffff16815260200190815260200160002060009054906101000a900460ff16610989576040517f08c379a0000000000000000000000000000000000000000000000000000000008152600401610980906115a6565b60405180910390fd5b6001600360008373ffffffffffffffffffffffffffffffffffffffff1673ffffffffffffffffffffffffffffffffffffffff16815260200190815260200160002060006101000a81548160ff0219169083151502179055508073ffffffffffffffffffffffffffffffffffffffff167fce172a18c676e1cd1d89bd3aa5cd3ebb2f0ca203406654160a08fa0f17a13edf6001604051610a289190610cd3565b60405180910390a250565b600460003373ffffffffffffffffffffffffffffffffffffffff1673ffffffffffffffffffffffffffffffffffffffff16815260200190815260200160002060009054906101000a900460ff16610abf576040517f08c379a0000000000000000000000000000000000000000000000000000000008152600401610ab6906115a6565b60405180910390fd5b600360008273ffffffffffffffffffffffffffffffffffffffff1673ffffffffffffffffffffffffffffffffffffffff16815260200190815260200160002060009054906101000a900460ff16610b4b576040517f08c379a0000000000000000000000000000000000000000000000000000000008152600401610b429061167e565b60405180910390fd5b6000600360008373ffffffffffffffffffffffffffffffffffffffff1673ffffffffffffffffffffffffffffffffffffffff16815260200190815260200160002060006101000a81548160ff0219169083151502179055508073ffffffffffffffffffffffffffffffffffffffff167fce172a18c676e1cd1d89bd3aa5cd3ebb2f0ca203406654160a08fa0f17a13edf6000604051610bea9190610cd3565b60405180910390a250565b60008054906101000a900473ffffffffffffffffffffffffffffffffffffffff1681565b6000604051905090565b600080fd5b600080fd5b600073ffffffffffffffffffffffffffffffffffffffff82169050919050565b6000610c5882610c2d565b9050919050565b610c6881610c4d565b8114610c7357600080fd5b50565b600081359050610c8581610c5f565b92915050565b600060208284031215610ca157610ca0610c23565b5b6000610caf84828501610c76565b91505092915050565b60008115159050919050565b610ccd81610cb8565b82525050565b6000602082019050610ce86000830184610cc4565b92915050565b600081519050919050565b600082825260208201905092915050565b60005b83811015610d28578082015181840152602081019050610d0d565b60008484015250505050565b6000601f19601f8301169050919050565b6000610d5082610cee565b610d5a8185610cf9565b9350610d6a818560208601610d0a565b610d7381610d34565b840191505092915050565b60006020820190508181036000830152610d988184610d45565b905092915050565b6000819050919050565b610db381610da0565b82525050565b6000602082019050610dce6000830184610daa565b92915050565b600080fd5b600080fd5b7f4e487b7100000000000000000000000000000000000000000000000000000000600052604160045260246000fd5b610e1682610d34565b810181811067ffffffffffffffff82111715610e3557610e34610dde565b5b80604052505050565b6000610e48610c19565b9050610e548282610e0d565b919050565b600067ffffffffffffffff821115610e7457610e73610dde565b5b610e7d82610d34565b9050602081019050919050565b82818337600083830152505050565b6000610eac610ea784610e59565b610e3e565b905082815260208101848484011115610ec857610ec7610dd9565b5b610ed3848285610e8a565b509392505050565b600082601f830112610ef057610eef610dd4565b5b8135610f00848260208601610e99565b91505092915050565b60008060408385031215610f2057610f1f610c23565b5b6000610f2e85828601610c76565b925050602083013567ffffffffffffffff811115610f4f57610f4e610c28565b5b610f5b85828601610edb565b9150509250929050565b610f6e81610c4d565b82525050565b6000602082019050610f896000830184610f65565b92915050565b7f4163636573732044656e6965643a204f6e6c792052656769737465726564204860008201527f6f73706974616c73000000000000000000000000000000000000000000000000602082015250565b6000610feb602883610cf9565b9150610ff682610f8f565b604082019050919050565b6000602082019050818103600083015261101a81610fde565b9050919050565b7f50617469656e7420697320616c72656164792072656769737465726564000000600082015250565b6000611057601d83610cf9565b915061106282611021565b602082019050919050565b600060208201905081810360008301526110868161104a565b9050919050565b7f4e487b7100000000000000000000000000000000000000000000000000000000600052602260045260246000fd5b600060028204905060018216806110d457607f821691505b6020821081036110e7576110e661108d565b5b50919050565b60008190508160005260206000209050919050565b60006020601f8301049050919050565b600082821b905092915050565b60006008830261114f7fffffffffffffffffffffffffffffffffffffffffffffffffffffffffffffffff82611112565b6111598683611112565b95508019841693508086168417925050509392505050565b6000819050919050565b600061119661119161118c84610da0565b611171565b610da0565b9050919050565b6000819050919050565b6111b08361117b565b6111c46111bc8261119d565b84845461111f565b825550505050565b600090565b6111d96111cc565b6111e48184846111a7565b505050565b5b81811015611208576111fd6000826111d1565b6001810190506111ea565b5050565b601f82111561124d5761121e816110ed565b61122784611102565b81016020851015611236578190505b61124a61124285611102565b8301826111e9565b50505b505050565b600082821c905092915050565b600061127060001984600802611252565b1980831691505092915050565b6000611289838361125f565b9150826002028217905092915050565b6112a282610cee565b67ffffffffffffffff8111156112bb576112ba610dde565b5b6112c582546110bc565b6112d082828561120c565b600060209050601f83116001811461130357600084156112f1578287015190505b6112fb858261127d565b865550611363565b601f198416611311866110ed565b60005b8281101561133957848901518255600182019150602085019450602081019050611314565b868310156113565784890151611352601f89168261125f565b8355505b6001600288020188555050505b505050505050565b7f4e487b7100000000000000000000000000000000000000000000000000000000600052601160045260246000fd5b60006113a582610da0565b91507fffffffffffffffffffffffffffffffffffffffffffffffffffffffffffffffff82036113d7576113d661136b565b5b600182019050919050565b7f70656e64696e6700000000000000000000000000000000000000000000000000600082015250565b6000611418600783610cf9565b9150611423826113e2565b602082019050919050565b60006040820190506114436000830184610cc4565b81810360208301526114548161140b565b905092915050565b7f4163636573732044656e6965643a204f6e6c792041646d696e206f722052656760008201527f6973746572656420486f73706974616c00000000000000000000000000000000602082015250565b60006114b8603083610cf9565b91506114c38261145c565b604082019050919050565b600060208201905081810360008301526114e7816114ab565b9050919050565b7f50617469656e74206973206e6f74207265676973746572656400000000000000600082015250565b6000611524601983610cf9565b915061152f826114ee565b602082019050919050565b6000602082019050818103600083015261155381611517565b9050919050565b7f4163636573732044656e6965643a204f6e6c792041646d696e00000000000000600082015250565b6000611590601983610cf9565b915061159b8261155a565b602082019050919050565b600060208201905081810360008301526115bf81611583565b9050919050565b7f50617469656e74206e6f74207265676973746572656400000000000000000000600082015250565b60006115fc601683610cf9565b9150611607826115c6565b602082019050919050565b6000602082019050818103600083015261162b816115ef565b9050919050565b7f486f73706974616c206973206e6f742072656769737465726564000000000000600082015250565b6000611668601a83610cf9565b915061167382611632565b602082019050919050565b600060208201905081810360008301526116978161165b565b905091905056fea2646970667358221220fb174e3965a02e91a0e6568b75dd3dcdd08dfaca9d3150108c9817b9c8ce66da64736f6c634300081a0033",
  "linkReferences": {},
  "deployedLinkReferences": {}
}