{
  "_format": "hh-sol-artifact-1",
  "contractName": "Medexa",
  "sourceName": "contracts/Medexa.sol",
  "abi": [
    {
      "inputs": [],
      "stateMutability": "nonpayable",
      "type": "constructor"
    },
    {
      "anonymous": false,
      "inputs": [
        {
          "indexed": true,
          "internalType": "address",
          "name": "hospital",
          "type": "address"
        },
        {
          "indexed": false,
          "internalType": "bool",
          "name": "isRegistered",
          "type": "bool"
        }
      ],
      "name": "HospitalRegistered",
      "type": "event"
    },
    {
      "anonymous": false,
      "inputs": [
        {
          "indexed": true,
          "internalType": "address",
          "name": "patient",
          "type": "address"
        },
        {
          "indexed": false,
          "internalType": "string",
          "name": "newCID",
          "type": "string"
        }
      ],
      "name": "PatientCIDUpdated",
      "type": "event"
    },
    {
      "anonymous": false,
      "inputs": [
        {
          "indexed": true,
          "internalType": "address",
          "name": "patient",
          "type": "address"
        },
        {
          "indexed": false,
          "internalType": "bool",
          "name": "isRegistered",
          "type": "bool"
        },
        {
          "indexed": false,
          "internalType": "string",
          "name": "folderCID",
          "type": "string"
        }
      ],
      "name": "PatientRegistered",
      "type": "event"
    },
    {
      "inputs": [],
      "name": "admin",
      "outputs": [
        {
          "internalType": "address",
          "name": "",
          "type": "address"
        }
      ],
      "stateMutability": "view",
      "type": "function"
    },
    {
      "inputs": [
        {
          "internalType": "address",
          "name": "",
          "type": "address"
        }
      ],
      "name": "admins",
      "outputs": [
        {
          "internalType": "bool",
          "name": "",
          "type": "bool"
        }
      ],
      "stateMutability": "view",
      "type": "function"
    },
    {
      "inputs": [
        {
          "internalType": "address",
          "name": "_patient",
          "type": "address"
        }
      ],
      "name": "getPatientCID",
      "outputs": [
        {
          "internalType": "string",
          "name": "",
          "type": "string"
        }
      ],
      "stateMutability": "view",
      "type": "function"
    },
    {
      "inputs": [
        {
          "internalType": "address",
          "name": "_address",
          "type": "address"
        }
      ],
      "name": "isAdmin",
      "outputs": [
        {
          "internalType": "bool",
          "name": "",
          "type": "bool"
        }
      ],
      "stateMutability": "view",
      "type": "function"
    },
    {
      "inputs": [
        {
          "internalType": "address",
          "name": "_hospital",
          "type": "address"
        }
      ],
      "name": "isRegisteredHospital",
      "outputs": [
        {
          "internalType": "bool",
          "name": "",
          "type": "bool"
        }
      ],
      "stateMutability": "view",
      "type": "function"
    },
    {
      "inputs": [],
      "name": "patientCount",
      "outputs": [
        {
          "internalType": "uint256",
          "name": "",
          "type": "uint256"
        }
      ],
      "stateMutability": "view",
      "type": "function"
    },
    {
      "inputs": [
        {
          "internalType": "address",
          "name": "_hospital",
          "type": "address"
        }
      ],
      "name": "registerHospital",
      "outputs": [],
      "stateMutability": "nonpayable",
      "type": "function"
    },
    {
      "inputs": [
        {
          "internalType": "address",
          "name": "_patient",
          "type": "address"
        }
      ],
      "name": "registerPatient",
      "outputs": [],
      "stateMutability": "nonpayable",
      "type": "function"
    },
    {
      "inputs": [
        {
          "internalType": "address",
          "name": "",
          "type": "address"
        }
      ],
      "name": "registeredHospitals",
      "outputs": [
        {
          "internalType": "bool",
          "name": "",
          "type": "bool"
        }
      ],
      "stateMutability": "view",
      "type": "function"
    },
    {
      "inputs": [
        {
          "internalType": "address",
          "name": "",
          "type": "address"
        }
      ],
      "name": "registeredPatients",
      "outputs": [
        {
          "internalType": "bool",
          "name": "",
          "type": "bool"
        }
      ],
      "stateMutability": "view",
      "type": "function"
    },
    {
      "inputs": [
        {
          "internalType": "address",
          "name": "_hospital",
          "type": "address"
        }
      ],
      "name": "revokeHospital",
      "outputs": [],
      "stateMutability": "nonpayable",
      "type": "function"
    },
    {
      "inputs": [
        {
          "internalType": "address",
          "name": "_patient",
          "type": "address"
        },
        {
          "internalType": "string",
          "name": "_newCID",
          "type": "string"
        }
      ],
      "name": "updatePatientCID",
      "outputs": [],
      "stateMutability": "nonpayable",
      "type": "function"
    }
  ],
  "bytecode": "0x6080604052348015600f57600080fd5b50336000806101000a81548173ffffffffffffffffffffffffffffffffffffffff021916908373ffffffffffffffffffffffffffffffffffffffff1602179055506001600460008060009054906101000a900473ffffffffffffffffffffffffffffffffffffffff1673ffffffffffffffffffffffffffffffffffffffff1673ffffffffffffffffffffffffffffffffffffffff16815260200190815260200160002060006101000a81548160ff0219169083151502179055506117c0806100d86000396000f3fe608060405234801561001057600080fd5b50600436106100b45760003560e01c80639cdaaad8116100715780639cdaaad8146101c5578063a0303c41146101f5578063c3856ebe14610213578063c5b998581461022f578063efd126671461024b578063f851a44014610267576100b4565b80631388c519146100b957806324d7806c146100d557806326fc97871461010557806338cb99ff14610135578063429b62e5146101655780636bd9110e14610195575b600080fd5b6100d360048036038101906100ce9190610d77565b610285565b005b6100ef60048036038101906100ea9190610d77565b6104e1565b6040516100fc9190610dbf565b60405180910390f35b61011f600480360381019061011a9190610d77565b610537565b60405161012c9190610dbf565b60405180910390f35b61014f600480360381019061014a9190610d77565b610557565b60405161015c9190610dbf565b60405180910390f35b61017f600480360381019061017a9190610d77565b6105ad565b60405161018c9190610dbf565b60405180910390f35b6101af60048036038101906101aa9190610d77565b6105cd565b6040516101bc9190610e6a565b60405180910390f35b6101df60048036038101906101da9190610d77565b61080c565b6040516101ec9190610dbf565b60405180910390f35b6101fd61082c565b60405161020a9190610ea5565b60405180910390f35b61022d60048036038101906102289190610ff5565b610832565b005b61024960048036038101906102449190610d77565b6109e9565b005b61026560048036038101906102609190610d77565b610b1f565b005b61026f610ce1565b60405161027c9190611060565b60405180910390f35b600360003373ffffffffffffffffffffffffffffffffffffffff1673ffffffffffffffffffffffffffffffffffffffff16815260200190815260200160002060009054906101000a900460ff16610311576040517f08c379a0000000000000000000000000000000000000000000000000000000008152600401610308906110ed565b60405180910390fd5b600160008273ffffffffffffffffffffffffffffffffffffffff1673ffffffffffffffffffffffffffffffffffffffff16815260200190815260200160002060009054906101000a900460ff161561039e576040517f08c379a000000000000000000000000000000000000000000000000000000000815260040161039590611159565b60405180910390fd5b60018060008373ffffffffffffffffffffffffffffffffffffffff1673ffffffffffffffffffffffffffffffffffffffff16815260200190815260200160002060006101000a81548160ff0219169083151502179055506040518060400160405280600781526020017f70656e64696e6700000000000000000000000000000000000000000000000000815250600260008373ffffffffffffffffffffffffffffffffffffffff1673ffffffffffffffffffffffffffffffffffffffff16815260200190815260200160002090816104769190611385565b506005600081548092919061048a90611486565b91905055508073ffffffffffffffffffffffffffffffffffffffff167fef63fe82891cb41cb75263a07b7c95dd17c208c197557dfe366c3762db1b0a5060016040516104d6919061151a565b60405180910390a250565b6000600460008373ffffffffffffffffffffffffffffffffffffffff1673ffffffffffffffffffffffffffffffffffffffff16815260200190815260200160002060009054906101000a900460ff169050919050565b60036020528060005260406000206000915054906101000a900460ff1681565b6000600360008373ffffffffffffffffffffffffffffffffffffffff1673ffffffffffffffffffffffffffffffffffffffff16815260200190815260200160002060009054906101000a900460ff169050919050565b60046020528060005260406000206000915054906101000a900460ff1681565b606060008054906101000a900473ffffffffffffffffffffffffffffffffffffffff1673ffffffffffffffffffffffffffffffffffffffff163373ffffffffffffffffffffffffffffffffffffffff1614806106725750600360003373ffffffffffffffffffffffffffffffffffffffff1673ffffffffffffffffffffffffffffffffffffffff16815260200190815260200160002060009054906101000a900460ff165b6106b1576040517f08c379a00000000000000000000000000000000000000000000000000000000081526004016106a8906115ba565b60405180910390fd5b600160008373ffffffffffffffffffffffffffffffffffffffff1673ffffffffffffffffffffffffffffffffffffffff16815260200190815260200160002060009054906101000a900460ff1661073d576040517f08c379a000000000000000000000000000000000000000000000000000000000815260040161073490611626565b60405180910390fd5b600260008373ffffffffffffffffffffffffffffffffffffffff1673ffffffffffffffffffffffffffffffffffffffff1681526020019081526020016000208054610787906111a8565b80601f01602080910402602001604051908101604052809291908181526020018280546107b3906111a8565b80156108005780601f106107d557610100808354040283529160200191610800565b820191906000526020600020905b8154815290600101906020018083116107e357829003601f168201915b50505050509050919050565b60016020528060005260406000206000915054906101000a900460ff1681565b60055481565b600460003373ffffffffffffffffffffffffffffffffffffffff1673ffffffffffffffffffffffffffffffffffffffff16815260200190815260200160002060009054906101000a900460ff166108be576040517f08c379a00000000000000000000000000000000000000000000000000000000081526004016108b590611692565b60405180910390fd5b600160008373ffffffffffffffffffffffffffffffffffffffff1673ffffffffffffffffffffffffffffffffffffffff16815260200190815260200160002060009054906101000a900460ff1661094a576040517f08c379a0000000000000000000000000000000000000000000000000000000008152600401610941906116fe565b60405180910390fd5b80600260008473ffffffffffffffffffffffffffffffffffffffff1673ffffffffffffffffffffffffffffffffffffffff16815260200190815260200160002090816109969190611385565b508173ffffffffffffffffffffffffffffffffffffffff167f6f77d04db43bd44d76ba912249773363c5c25792097ed5bd3e044f117ae496e7826040516109dd9190610e6a565b60405180910390a25050565b600460003373ffffffffffffffffffffffffffffffffffffffff1673ffffffffffffffffffffffffffffffffffffffff16815260200190815260200160002060009054906101000a900460ff16610a75576040517f08c379a0000000000000000000000000000000000000000000000000000000008152600401610a6c90611692565b60405180910390fd5b6001600360008373ffffffffffffffffffffffffffffffffffffffff1673ffffffffffffffffffffffffffffffffffffffff16815260200190815260200160002060006101000a81548160ff0219169083151502179055508073ffffffffffffffffffffffffffffffffffffffff167fce172a18c676e1cd1d89bd3aa5cd3ebb2f0ca203406654160a08fa0f17a13edf6001604051610b149190610dbf565b60405180910390a250565b600460003373ffffffffffffffffffffffffffffffffffffffff1673ffffffffffffffffffffffffffffffffffffffff16815260200190815260200160002060009054906101000a900460ff16610bab576040517f08c379a0000000000000000000000000000000000000000000000000000000008152600401610ba290611692565b60405180910390fd5b600360008273ffffffffffffffffffffffffffffffffffffffff1673ffffffffffffffffffffffffffffffffffffffff16815260200190815260200160002060009054906101000a900460ff16610c37576040517f08c379a0000000000000000000000000000000000000000000000000000000008152600401610c2e9061176a565b60405180910390fd5b6000600360008373ffffffffffffffffffffffffffffffffffffffff1673ffffffffffffffffffffffffffffffffffffffff16815260200190815260200160002060006101000a81548160ff0219169083151502179055508073ffffffffffffffffffffffffffffffffffffffff167fce172a18c676e1cd1d89bd3aa5cd3ebb2f0ca203406654160a08fa0f17a13edf6000604051610cd69190610dbf565b60405180910390a250565b60008054906101000a900473ffffffffffffffffffffffffffffffffffffffff1681565b6000604051905090565b600080fd5b600080fd5b600073ffffffffffffffffffffffffffffffffffffffff82169050919050565b6000610d4482610d19565b9050919050565b610d5481610d39565b8114610d5f57600080fd5b50565b600081359050610d7181610d4b565b92915050565b600060208284031215610d8d57610d8c610d0f565b5b6000610d9b84828501610d62565b91505092915050565b60008115159050919050565b610db981610da4565b82525050565b6000602082019050610dd46000830184610db0565b92915050565b600081519050919050565b600082825260208201905092915050565b60005b83811015610e14578082015181840152602081019050610df9565b60008484015250505050565b6000601f19601f8301169050919050565b6000610e3c82610dda565b610e468185610de5565b9350610e56818560208601610df6565b610e5f81610e20565b840191505092915050565b60006020820190508181036000830152610e848184610e31565b905092915050565b6000819050919050565b610e9f81610e8c565b82525050565b6000602082019050610eba6000830184610e96565b92915050565b600080fd5b600080fd5b7f4e487b7100000000000000000000000000000000000000000000000000000000600052604160045260246000fd5b610f0282610e20565b810181811067ffffffffffffffff82111715610f2157610f20610eca565b5b80604052505050565b6000610f34610d05565b9050610f408282610ef9565b919050565b600067ffffffffffffffff821115610f6057610f5f610eca565b5b610f6982610e20565b9050602081019050919050565b82818337600083830152505050565b6000610f98610f9384610f45565b610f2a565b905082815260208101848484011115610fb457610fb3610ec5565b5b610fbf848285610f76565b509392505050565b600082601f830112610fdc57610fdb610ec0565b5b8135610fec848260208601610f85565b91505092915050565b6000806040838503121561100c5761100b610d0f565b5b600061101a85828601610d62565b925050602083013567ffffffffffffffff81111561103b5761103a610d14565b5b61104785828601610fc7565b9150509250929050565b61105a81610d39565b82525050565b60006020820190506110756000830184611051565b92915050565b7f4163636573732044656e6965643a204f6e6c792052656769737465726564204860008201527f6f73706974616c73000000000000000000000000000000000000000000000000602082015250565b60006110d7602883610de5565b91506110e28261107b565b604082019050919050565b60006020820190508181036000830152611106816110ca565b9050919050565b7f50617469656e7420697320616c72656164792072656769737465726564000000600082015250565b6000611143601d83610de5565b915061114e8261110d565b602082019050919050565b6000602082019050818103600083015261117281611136565b9050919050565b7f4e487b7100000000000000000000000000000000000000000000000000000000600052602260045260246000fd5b600060028204905060018216806111c057607f821691505b6020821081036111d3576111d2611179565b5b50919050565b60008190508160005260206000209050919050565b60006020601f8301049050919050565b600082821b905092915050565b60006008830261123b7fffffffffffffffffffffffffffffffffffffffffffffffffffffffffffffffff826111fe565b61124586836111fe565b95508019841693508086168417925050509392505050565b6000819050919050565b600061128261127d61127884610e8c565b61125d565b610e8c565b9050919050565b6000819050919050565b61129c83611267565b6112b06112a882611289565b84845461120b565b825550505050565b600090565b6112c56112b8565b6112d0818484611293565b505050565b5b818110156112f4576112e96000826112bd565b6001810190506112d6565b5050565b601f8211156113395761130a816111d9565b611313846111ee565b81016020851015611322578190505b61133661132e856111ee565b8301826112d5565b50505b505050565b600082821c905092915050565b600061135c6000198460080261133e565b1980831691505092915050565b6000611375838361134b565b9150826002028217905092915050565b61138e82610dda565b67ffffffffffffffff8111156113a7576113a6610eca565b5b6113b182546111a8565b6113bc8282856112f8565b600060209050601f8311600181146113ef57600084156113dd578287015190505b6113e78582611369565b86555061144f565b601f1984166113fd866111d9565b60005b8281101561142557848901518255600182019150602085019450602081019050611400565b86831015611442578489015161143e601f89168261134b565b8355505b6001600288020188555050505b505050505050565b7f4e487b7100000000000000000000000000000000000000000000000000000000600052601160045260246000fd5b600061149182610e8c565b91507fffffffffffffffffffffffffffffffffffffffffffffffffffffffffffffffff82036114c3576114c2611457565b5b600182019050919050565b7f70656e64696e6700000000000000000000000000000000000000000000000000600082015250565b6000611504600783610de5565b915061150f826114ce565b602082019050919050565b600060408201905061152f6000830184610db0565b8181036020830152611540816114f7565b905092915050565b7f4163636573732044656e6965643a204f6e6c792041646d696e206f722052656760008201527f6973746572656420486f73706974616c00000000000000000000000000000000602082015250565b60006115a4603083610de5565b91506115af82611548565b604082019050919050565b600060208201905081810360008301526115d381611597565b9050919050565b7f50617469656e74206973206e6f74207265676973746572656400000000000000600082015250565b6000611610601983610de5565b915061161b826115da565b602082019050919050565b6000602082019050818103600083015261163f81611603565b9050919050565b7f4163636573732044656e6965643a204f6e6c792041646d696e00000000000000600082015250565b600061167c601983610de5565b915061168782611646565b602082019050919050565b600060208201905081810360008301526116ab8161166f565b9050919050565b7f50617469656e74206e6f74207265676973746572656400000000000000000000600082015250565b60006116e8601683610de5565b91506116f3826116b2565b602082019050919050565b60006020820190508181036000830152611717816116db565b9050919050565b7f486f73706974616c206973206e6f742072656769737465726564000000000000600082015250565b6000611754601a83610de5565b915061175f8261171e565b602082019050919050565b6000602082019050818103600083015261178381611747565b905091905056fea2646970667358221220409cbb0b5280f20d203a12b51ce638ef0f7b81a1ce78c0b91af957e457251f8864736f6c634300081a0033",
  "linkReferences": {},
  "deployedLinkReferences": {}
}